{
  "contractName": "Parking",
  "abi": [
    {
      "constant": true,
      "inputs": [
        {
          "name": "",
          "type": "uint256"
        }
      ],
      "name": "postiLiberi",
      "outputs": [
        {
          "name": "",
          "type": "bool"
        }
      ],
      "payable": false,
      "stateMutability": "view",
      "type": "function"
    },
    {
      "constant": true,
      "inputs": [
        {
          "name": "",
          "type": "uint256"
        }
      ],
      "name": "soste",
      "outputs": [
        {
          "name": "ora",
          "type": "uint256"
        },
        {
          "name": "durata",
          "type": "uint256"
        },
        {
          "name": "targa",
          "type": "string"
        },
        {
          "name": "nextSosta",
          "type": "uint256"
        },
        {
          "name": "idPosto",
          "type": "uint256"
        }
      ],
      "payable": false,
      "stateMutability": "view",
      "type": "function"
    },
    {
      "constant": true,
      "inputs": [
        {
          "name": "",
          "type": "uint256"
        }
      ],
      "name": "posti",
      "outputs": [
        {
          "name": "coordinate",
          "type": "string"
        },
        {
          "name": "prezzo",
          "type": "uint256"
        },
        {
          "name": "idSosta",
          "type": "uint256"
        }
      ],
      "payable": false,
      "stateMutability": "view",
      "type": "function"
    },
    {
      "inputs": [
        {
          "name": "_payAccount",
          "type": "address"
        }
      ],
      "payable": false,
      "stateMutability": "nonpayable",
      "type": "constructor"
    },
    {
      "anonymous": false,
      "inputs": [
        {
          "indexed": false,
          "name": "_from",
          "type": "address"
        },
        {
          "indexed": false,
          "name": "_to",
          "type": "address"
        },
        {
          "indexed": false,
          "name": "_ricevuta",
          "type": "uint256"
        },
        {
          "indexed": false,
          "name": "_costo",
          "type": "uint256"
        }
      ],
      "name": "Pagamento",
      "type": "event"
    },
    {
      "constant": false,
      "inputs": [
        {
          "name": "_prezzo",
          "type": "uint256"
        },
        {
          "name": "_idSosta",
          "type": "uint256"
        }
      ],
      "name": "pago",
      "outputs": [
        {
          "name": "",
          "type": "bool"
        }
      ],
      "payable": true,
      "stateMutability": "payable",
      "type": "function"
    },
    {
      "constant": false,
      "inputs": [
        {
          "name": "_dOwn",
          "type": "uint256"
        },
        {
          "name": "_idPosto",
          "type": "uint256"
        },
        {
          "name": "_targa",
          "type": "string"
        }
      ],
      "name": "acquisto",
      "outputs": [],
      "payable": true,
      "stateMutability": "payable",
      "type": "function"
    },
    {
      "constant": false,
      "inputs": [
        {
          "name": "_tsOwn",
          "type": "uint256"
        },
        {
          "name": "_dOwn",
          "type": "uint256"
        },
        {
          "name": "_idPosto",
          "type": "uint256"
        },
        {
          "name": "_targa",
          "type": "string"
        }
      ],
      "name": "prenotazione",
      "outputs": [],
      "payable": true,
      "stateMutability": "payable",
      "type": "function"
    },
    {
      "constant": false,
      "inputs": [
        {
          "name": "_tsOwn",
          "type": "uint256"
        },
        {
          "name": "_dOwn",
          "type": "uint256"
        }
      ],
      "name": "ricercaPosto",
      "outputs": [
        {
          "name": "",
          "type": "bool[]"
        }
      ],
      "payable": false,
      "stateMutability": "nonpayable",
      "type": "function"
    },
    {
      "constant": false,
      "inputs": [
        {
          "name": "_idSosta",
          "type": "uint256"
        },
        {
          "name": "_dOwn",
          "type": "uint256"
        }
      ],
      "name": "estensione",
      "outputs": [],
      "payable": true,
      "stateMutability": "payable",
      "type": "function"
    }
  ],
  "bytecode": "0x6080604052600a6001556040805190810160405280600781526020017f414230303043440000000000000000000000000000000000000000000000000081525060029080519060200190620000569291906200043b565b506402540be40060035562015180600455670de0b6b3a76400006005553480156200008057600080fd5b5060405160208062001eb28339810180604052810190808051906020019092919050505060008082600660006101000a81548173ffffffffffffffffffffffffffffffffffffffff021916908373ffffffffffffffffffffffffffffffffffffffff16021790555033600760006101000a81548173ffffffffffffffffffffffffffffffffffffffff021916908373ffffffffffffffffffffffffffffffffffffffff16021790555060018054019150600190505b818110156200030b576060604051908101604052806040805190810160405280600d81526020017f436f6f7264696e6174652e2e2e00000000000000000000000000000000000000815250815260200182815260200182815250600860008381526020019081526020016000206000820151816000019080519060200190620001c0929190620004c2565b50602082015181600101556040820151816002015590505060a060405190810160405280600081526020016000815260200160028054600181600116156101000203166002900480601f0160208091040260200160405190810160405280929190818152602001828054600181600116156101000203166002900480156200028c5780601f1062000260576101008083540402835291602001916200028c565b820191906000526020600020905b8154815290600101906020018083116200026e57829003601f168201915b50505050508152602001838152602001828152506009600083815260200190815260200160002060008201518160000155602082015181600101556040820151816002019080519060200190620002e5929190620004c2565b506060820151816003015560808201518160040155905050808060010191505062000135565b60a06040519081016040528060035481526020016000815260200160028054600181600116156101000203166002900480601f016020809104026020016040519081016040528092919081815260200182805460018160011615610100020316600290048015620003c05780601f106200039457610100808354040283529160200191620003c0565b820191906000526020600020905b815481529060010190602001808311620003a257829003601f168201915b50505050508152602001838152602001600081525060096000848152602001908152602001600020600082015181600001556020820151816001015560408201518160020190805190602001906200041a929190620004c2565b50606082015181600301556080820151816004015590505050505062000571565b828054600181600116156101000203166002900490600052602060002090601f016020900481019282601f106200047e57805160ff1916838001178555620004af565b82800160010185558215620004af579182015b82811115620004ae57825182559160200191906001019062000491565b5b509050620004be919062000549565b5090565b828054600181600116156101000203166002900490600052602060002090601f016020900481019282601f106200050557805160ff191683800117855562000536565b8280016001018555821562000536579182015b828111156200053557825182559160200191906001019062000518565b5b50905062000545919062000549565b5090565b6200056e91905b808211156200056a57600081600090555060010162000550565b5090565b90565b61193180620005816000396000f30060806040526004361061008e576000357c0100000000000000000000000000000000000000000000000000000000900463ffffffff168063129167ab146100935780631aa0d717146100d8578063313a971c146101645780634dd710921461018e578063823fc19b14610250578063ab2c5f1c14610292578063c395a3fe14610346578063d8bc1d55146103c0575b600080fd5b34801561009f57600080fd5b506100be60048036038101908080359060200190929190505050610430565b604051808215151515815260200191505060405180910390f35b3480156100e457600080fd5b5061010d6004803603810190808035906020019092919080359060200190929190505050610463565b6040518080602001828103825283818151815260200191508051906020019060200280838360005b83811015610150578082015181840152602081019050610135565b505050509050019250505060405180910390f35b61018c60048036038101908080359060200190929190803590602001909291905050506107c6565b005b34801561019a57600080fd5b506101b960048036038101908080359060200190929190505050610af4565b6040518086815260200185815260200180602001848152602001838152602001828103825285818151815260200191508051906020019080838360005b838110156102115780820151818401526020810190506101f6565b50505050905090810190601f16801561023e5780820380516001836020036101000a031916815260200191505b50965050505050505060405180910390f35b6102786004803603810190808035906020019092919080359060200190929190505050610bc2565b604051808215151515815260200191505060405180910390f35b34801561029e57600080fd5b506102bd60048036038101908080359060200190929190505050610d3b565b6040518080602001848152602001838152602001828103825285818151815260200191508051906020019080838360005b838110156103095780820151818401526020810190506102ee565b50505050905090810190601f1680156103365780820380516001836020036101000a031916815260200191505b5094505050505060405180910390f35b6103be600480360381019080803590602001909291908035906020019092919080359060200190929190803590602001908201803590602001908080601f0160208091040260200160405190810160405280939291908181526020018383808284378201915050505050509192919290505050610dfd565b005b61042e6004803603810190808035906020019092919080359060200190929190803590602001908201803590602001908080601f0160208091040260200160405190810160405280939291908181526020018383808284378201915050505050509192919290505050611370565b005b60008181548110151561043f57fe5b9060005260206000209060209182820401919006915054906101000a900460ff1681565b60606000806000806000607842038811151561050d576040517f08c379a00000000000000000000000000000000000000000000000000000000081526004018080602001828103825260228152602001807f5269636572636120506f73746f3a206f726172696f206769c3a020706173736181526020017f746f00000000000000000000000000000000000000000000000000000000000081525060400191505060405180910390fd5b600354881015156105ac576040517f08c379a000000000000000000000000000000000000000000000000000000000815260040180806020018281038252602e8152602001807f5269636572636120506f73746f3a206f726172696f2074726f70706f2061766181526020017f6e7469206e656c2066757475726f00000000000000000000000000000000000081525060400191505060405180910390fd5b6004548710151561064b576040517f08c379a00000000000000000000000000000000000000000000000000000000081526004018080602001828103825260228152602001807f5269636572636120506f73746f3a206475726174612074726f70706f206c756e81526020017f676100000000000000000000000000000000000000000000000000000000000081525060400191505060405180910390fd5b5b600080805490501415156106ae57600060016000805490500381548110151561067157fe5b90600052602060002090602091828204019190066101000a81549060ff021916905560008054809190600190036106a89190611826565b5061064c565b60018054019150600190505b81811015610743576106e38888600860008581526020019081526020016000206002015461175c565b809750819650829550505050600085908060018154018082558091505090600182039060005260206000209060209182820401919006909192909190916101000a81548160ff0219169083151502179055505080806001019150506106ba565b60008054806020026020016040519081016040528092919081815260200182805480156107b457602002820191906000526020600020906000905b82829054906101000a900460ff1615158152602001906001019060208260000104928301926001038202915080841161077e5790505b50505050509550505050505092915050565b60008060006001548511151561086a576040517f08c379a00000000000000000000000000000000000000000000000000000000081526004018080602001828103825260258152602001807f457374656e73696f6e653a2049442064656c6c6120736f737461206e6f6e207681526020017f616c69646f00000000000000000000000000000000000000000000000000000081525060400191505060405180910390fd5b600960008681526020019081526020016000206001015460096000878152602001908152602001600020600001540192506078420383111515610915576040517f08c379a000000000000000000000000000000000000000000000000000000000815260040180806020018281038252601e8152602001807f457374656e73696f6e653a20736f737461206769c3a02073636164757461000081525060200191505060405180910390fd5b6009600060096000888152602001908152602001600020600301548152602001908152602001600020600001549150818484011015156109e3576040517f08c379a00000000000000000000000000000000000000000000000000000000081526004018080602001828103825260218152602001807f457374656e73696f6e653a20706f73746f206e6f6e20646973706f6e6962696c81526020017f650000000000000000000000000000000000000000000000000000000000000081525060400191505060405180910390fd5b836009600087815260200190815260200160002060010160008282540192505081905550600860006009600088815260200190815260200160002060040154815260200190815260200160002060010154610e1085811515610a4157fe5b0460055402029050610a538186610bc2565b1515610aed576040517f08c379a00000000000000000000000000000000000000000000000000000000081526004018080602001828103825260258152602001807f457374656e73696f6e653a2070726f626c656d6920636f6e20696c207061676181526020017f6d656e746f00000000000000000000000000000000000000000000000000000081525060400191505060405180910390fd5b5050505050565b6009602052806000526040600020600091509050806000015490806001015490806002018054600181600116156101000203166002900480601f016020809104026020016040519081016040528092919081815260200182805460018160011615610100020316600290048015610bac5780601f10610b8157610100808354040283529160200191610bac565b820191906000526020600020905b815481529060010190602001808311610b8f57829003601f168201915b5050505050908060030154908060040154905085565b60008234141515610bd65760009050610d35565b823373ffffffffffffffffffffffffffffffffffffffff16311015610bfe5760009050610d35565b600660009054906101000a900473ffffffffffffffffffffffffffffffffffffffff1673ffffffffffffffffffffffffffffffffffffffff166108fc349081150290604051600060405180830381858888f19350505050158015610c66573d6000803e3d6000fd5b507f28a9cdf37598bb227ebe1395061f2bf374c7fe9830aa2c0b854646b4d61e570a33600660009054906101000a900473ffffffffffffffffffffffffffffffffffffffff168434604051808573ffffffffffffffffffffffffffffffffffffffff1673ffffffffffffffffffffffffffffffffffffffff1681526020018473ffffffffffffffffffffffffffffffffffffffff1673ffffffffffffffffffffffffffffffffffffffff16815260200183815260200182815260200194505050505060405180910390a1600190505b92915050565b6008602052806000526040600020600091509050806000018054600181600116156101000203166002900480601f016020809104026020016040519081016040528092919081815260200182805460018160011615610100020316600290048015610de75780601f10610dbc57610100808354040283529160200191610de7565b820191906000526020600020905b815481529060010190602001808311610dca57829003601f168201915b5050505050908060010154908060020154905083565b60008060008060006078420389111515610ea5576040517f08c379a00000000000000000000000000000000000000000000000000000000081526004018080602001828103825260218152602001807f5072656e6f74617a696f6e653a206f726172696f206769c3a02070617373617481526020017f6f0000000000000000000000000000000000000000000000000000000000000081525060400191505060405180910390fd5b60035489101515610f44576040517f08c379a000000000000000000000000000000000000000000000000000000000815260040180806020018281038252602d8152602001807f5072656e6f74617a696f6e653a206f726172696f2074726f70706f206176616e81526020017f7469206e656c2066757475726f0000000000000000000000000000000000000081525060400191505060405180910390fd5b60045488101515610fe3576040517f08c379a00000000000000000000000000000000000000000000000000000000081526004018080602001828103825260218152602001807f5072656e6f74617a696f6e653a206475726174612074726f70706f206c756e6781526020017f610000000000000000000000000000000000000000000000000000000000000081525060400191505060405180910390fd5b6001548710151561105c576040517f08c379a000000000000000000000000000000000000000000000000000000000815260040180806020018281038252601f8152602001807f5072656e6f74617a696f6e653a20706f73746f20696e6573697374656e74650081525060200191505060405180910390fd5b61107d8989600860008b81526020019081526020016000206002015461175c565b809750819650829550505050841515611124576040517f08c379a00000000000000000000000000000000000000000000000000000000081526004018080602001828103825260238152602001807f5072656e6f74617a696f6e653a20706f73746f206e6f6e20646973706f6e696281526020017f696c65000000000000000000000000000000000000000000000000000000000081525060400191505060405180910390fd5b883388604051602001808481526020018373ffffffffffffffffffffffffffffffffffffffff1673ffffffffffffffffffffffffffffffffffffffff166c0100000000000000000000000002815260140182815260200193505050506040516020818303038152906040526040518082805190602001908083835b6020831015156111c4578051825260208201915060208101905060208303925061119f565b6001836020036101000a03801982511681845116808217855250505050505090500191505060405180910390206001900491506008600088815260200190815260200160002060010154610e108981151561121b57fe5b046005540202905061122d8183610bc2565b15156112c7576040517f08c379a00000000000000000000000000000000000000000000000000000000081526004018080602001828103825260278152602001807f5072656e6f74617a696f6e653a2070726f626c656d6920636f6e20696c20706181526020017f67616d656e746f0000000000000000000000000000000000000000000000000081525060400191505060405180910390fd5b60a0604051908101604052808a8152602001898152602001878152602001858152602001888152506009600084815260200190815260200160002060008201518160000155602082015181600101556040820151816002019080519060200190611332929190611860565b506060820151816003015560808201518160040155905050816009600085815260200190815260200160002060030181905550505050505050505050565b600080600080600080429250600454891015156113f5576040517f08c379a000000000000000000000000000000000000000000000000000000000815260040180806020018281038252601d8152602001807f416371756973746f3a206475726174612074726f70706f206c756e676100000081525060200191505060405180910390fd5b6001548810151561146e576040517f08c379a000000000000000000000000000000000000000000000000000000000815260040180806020018281038252601b8152602001807f416371756973746f3a20706f73746f20696e6573697374656e7465000000000081525060200191505060405180910390fd5b61148f838a600860008c81526020019081526020016000206002015461175c565b809850819750829650505050851515611510576040517f08c379a000000000000000000000000000000000000000000000000000000000815260040180806020018281038252601f8152602001807f416371756973746f3a20706f73746f206e6f6e20646973706f6e6962696c650081525060200191505060405180910390fd5b823389604051602001808481526020018373ffffffffffffffffffffffffffffffffffffffff1673ffffffffffffffffffffffffffffffffffffffff166c0100000000000000000000000002815260140182815260200193505050506040516020818303038152906040526040518082805190602001908083835b6020831015156115b0578051825260208201915060208101905060208303925061158b565b6001836020036101000a03801982511681845116808217855250505050505090500191505060405180910390206001900491506008600089815260200190815260200160002060010154610e108a81151561160757fe5b04600554020290506116198183610bc2565b15156116b3576040517f08c379a00000000000000000000000000000000000000000000000000000000081526004018080602001828103825260238152602001807f416371756973746f3a2070726f626c656d6920636f6e20696c20706167616d6581526020017f6e746f000000000000000000000000000000000000000000000000000000000081525060400191505060405180910390fd5b60a0604051908101604052808481526020018a815260200188815260200186815260200189815250600960008481526020019081526020016000206000820151816000015560208201518160010155604082015181600201908051906020019061171e929190611860565b50606082015181600301556080820151816004015590505081600860008a815260200190815260200160002060020181905550505050505050505050565b60008060008060008591508590505b60096000838152602001908152602001600020600001548811156117aa578190506009600083815260200190815260200160002060030154915061176b565b6009600083815260200190815260200160002060000154878901101561181057876009600083815260200190815260200160002060010154600960008481526020019081526020016000206000015401101561180f578082600194509450945061181b565b5b808260009450945094505b505093509350939050565b81548183558181111561185b57601f016020900481601f0160209004836000526020600020918201910161185a91906118e0565b5b505050565b828054600181600116156101000203166002900490600052602060002090601f016020900481019282601f106118a157805160ff19168380011785556118cf565b828001600101855582156118cf579182015b828111156118ce5782518255916020019190600101906118b3565b5b5090506118dc91906118e0565b5090565b61190291905b808211156118fe5760008160009055506001016118e6565b5090565b905600a165627a7a7230582047ead0a294f1d14fe806368bf45ad740ce664c7470a2eab9d5cb3a911df55eb90029",
  "source": "/**\n  ******************************************************************************\n  * @title   Parking Smart Contract\n  * @author  Umberto Coppola Bottazzi, Alfonso Fezza\n  * @version V1.3\n  * @date    22-Ottobre-2018\n  * @notice   Questo è il contratto per un parcheggio sulla rete Ethereum. Il\n  *\t\t\t file definisce tutte le funzioni necessarie al funzionamento.\n  ******************************************************************************\n  */\npragma solidity ^0.4.24;\n\ncontract Parking {\n\n\tbool [] public postiLiberi;\t\t\t\t\t/*!< vettore di posti disponibili*/\n\tuint nPosti = 10;\t\t\t\t\t\t    /*!< numero totale di posti nel parcheggio*/\n\tstring targaProva=\"AB000CD\"; \t\t\t\t/*!< placeholder per la targa*/\n\tuint maxTime = 10000000000; \t\t\t\t/*!< timestamp usato come limite superiore*/\n\tuint maxDurata = 86400;\t\t\t\t\t\t/*!< durata in secondi di un giorno, usato come limite superiore*/\n\tuint ether1 = 1000000000000000000; \t\t\t/*!< valore in wei di 1 ether*/\n\taddress addr;\t\t\t\t\t\t\t\t/*!< indirizzo del proprietario del parcheggio*/\n\taddress ownAddr;\t\t\t\t\t\t\t/*!< indirizzo del proprietario del parcheggio*/\n\n\t//DA eliminare\n\t//uint[] public printedList;\n\n\t/**\n\t  * @notice struttura del posto\n\t*/\n\tstruct Posto{\n\t\tstring coordinate; \t\t\t\t\t\t/*!< coordinate geografiche*/\n\t\tuint prezzo; \t\t\t\t\t\t\t/*!< prezzo in ether*/\n\t\tuint idSosta; \t\t\t\t\t\t\t/*!< indice della sosta acquistata più di recente*/\n\t}\n\n\t/**\n\t  * @notice struttura della sosta\n\t*/\n\tstruct Sosta{\n\t\tuint ora; \t\t\t\t\t\t\t\t/*!< ts dell'ora in cui è comincia la sosta*/\n\t\tuint durata; \t\t\t\t\t\t\t/*!< durata, in secondi, della sosta*/\n\t\tstring targa; \t\t\t\t\t\t\t/*!< targa della macchina che si vuole parcheggiare*/\n\t\tuint nextSosta; \t\t\t\t\t\t/*!< indice della prossima sosta su quel posto*/\n\t\tuint idPosto; \t\t\t\t\t\t\t/*!< indice del posto*/\n\t}\n\n\tmapping (uint => Posto) public posti; \t\t/*!< mapping per indicizzare i posti*/\n\tmapping (uint => Sosta) public soste;\t\t/*!< mapping per indicizzare le soste*/\n\n\tevent Pagamento(address _from, address _to, uint _ricevuta,  uint _costo);\t\t/*!< evento di tipo Pagamento*/\n\n\t/**\n\t  * @notice  Costruttore del contratto, viene chiamato solo al momento del deploy.\n\t  */\n\tconstructor(address _payAccount) public {\n\t\taddr = _payAccount;\n\t\townAddr = msg.sender;\n\n\t\tuint maxIndex = nPosti+1;\n\n\t\t//soste[0] = Sosta(maxTime,0,targaProva,maxIndex,0);\n\n\t\tfor(uint i=1; i<maxIndex; i++){\n\t\t\tposti[i] = Posto(\"Coordinate...\",i,i);\n\t\t\t/* Aggiungo sosta Limite Inferiore, una per ciascun posto --> GMT: Thursday 1 January 1970 00:00:00 */\n\t\t\tsoste[i] = Sosta(0,0,targaProva,maxIndex,i);\n\t\t}\n\n\t\t/* Aggiungo sosta Limite Superiore --> GMT: Saturday 20 November 2286 17:46:40 */\n\t\tsoste[maxIndex] = Sosta(maxTime,0,targaProva,maxIndex,0);\n\t}\n\n\t/**\n\t  * @notice Controlla la disponibilità di un posto per un certo orario.\n\t  * @dev \tView serve se la funzione non mofica i dati.\n\t  * @param _tsOwn timestamp dell'orario in cui si desidera il posto\n\t  * @param _dOwn durata della sosta\n\t  * @param _headSoste riferimento alla testa della lista delle soste di un particolare posto\n\t  *\t@return _i indice della prima sosta che ha il ts maggiore di quello cercato\n\t  *\t@return _iPrev indice della sosta precedente a quella trovata\n\t  *\t@return _disp informazione sulla disponibilità del posto\n\t  *   Questo parametro può assumere i seguenti valori:\n\t  *   - true, se il posto è disponibile\n\t  *   - false, se il posto non è disponibile\n\t  */\n\tfunction checkDisp(uint _tsOwn, uint _dOwn, uint _headSoste) private view\n\t\treturns (uint , uint , bool) {\n\n\t\tuint _i = _headSoste;\n\t\tuint _iPrev = _headSoste;\n\n\t\twhile(_tsOwn > soste[_i].ora){\n\t\t\t_iPrev = _i;\n\t\t\t_i = soste[_i].nextSosta;\n\t\t}\n\n\t\tif(_tsOwn + _dOwn < soste[_i].ora){\n\t\t\tif((soste[_iPrev].ora + soste[_iPrev].durata) < _tsOwn) {\n\t\t\t\treturn (_iPrev,_i,true);\n\t\t\t}\n\t\t}\n\n\t\treturn (_iPrev,_i,false);\n\t}\n\n\t/**\n\t  * @notice  Permette di pagare la sosta.\n\t  * @param \t_prezzo costo in wei della sosta\n\t  *\t@return _res informazione sulla riuscita del pagamento\n\t  *   Questo parametro può assumere i seguenti valori:\n\t  *     - true, se il pagamento è riuscito\n\t  *     - false, se il pagamento non è riuscito\n\t  */\n\tfunction pago(uint _prezzo, uint _idSosta) public payable returns (bool) {\n\n    \tif(msg.value != _prezzo) return false;\n    \tif(msg.sender.balance < _prezzo) return false;\n\n    \t//addr.send(msg.value);\t\t\t\t\t\t\t//sarebbe più corretto usare questa perchè ritorna true o false e pago è chiamata con una require\n  \t\taddr.transfer(msg.value);\t\t\t\t\t\t//se qua facciamo transfer non dovrebbe essere necessario usare require(non è vero va cmq usato per terminare con errore se prezzo non si trova) per chiamarla però potrebbe anche essere utile come raise\n    \temit Pagamento(msg.sender, addr,_idSosta, msg.value);\n\n    \treturn true;\n    }\n\n\t/**\n\t  * @notice  Permette di acquistare una sosta in questo momento.\n\t  * @param  _dOwn durata della sosta\n\t  * @param \t_idPosto indice del posto su cui si vuole sostare\n\t  * @param \t_targa targa della macchina da parcheggiare\n\t  */\n\tfunction acquisto(uint _dOwn, uint _idPosto, string _targa) public payable {\n\t\tbool _disp; \t\t\t\t\t\t\t\t/*!< disponibilità del posto*/\n\t\tuint _next; \t\t\t\t\t\t\t\t/*!< indice della prossima sosta*/\n\t\tuint _prev; \t\t\t\t\t\t\t\t/*!< indice della sosta precedente*/\n\t\tuint _ora = now; \t\t\t\t\t\t\t/*!< ts di questo momento*/\n\n\t\trequire((_dOwn < maxDurata), \"Acquisto: durata troppo lunga\");\n\t\trequire((_idPosto < nPosti), \"Acquisto: posto inesistente\");\n\n\t\t(_prev,_next,_disp) = checkDisp(_ora, _dOwn, posti[_idPosto].idSosta);\n\t\trequire(_disp, \"Acquisto: posto non disponibile\");\n\n\t\tuint _idSosta = uint(keccak256(abi.encodePacked(_ora,msg.sender,_idPosto)));\t\t\t\t\t\t\t\t\t\t\t\t\t/*!< hash usato come indice per le soste*/\n\t\tuint _prezzo =  ether1*(_dOwn/3600)*posti[_idPosto].prezzo; \t//credo si debba fare un arrotondamento\t/*!< costo del posto, in wei*/\n\t    require(pago(_prezzo,_idSosta), \"Acquisto: problemi con il pagamento\");\n\n    \tsoste[_idSosta] = Sosta(_ora, _dOwn, _targa, _next, _idPosto);\n    \tposti[_idPosto].idSosta = _idSosta;\n\t}\n\n\t/**\n\t  * @notice  Permette di acquistare una sosta per un momento futuro.\n\t  * @param  _tsOwn timestamp dell'orario in cui si desidera il posto\n\t  * @param  _dOwn durata della sosta\n\t  * @param \t_idPosto indice del posto su cui si vuole sostare\n\t  * @param \t_targa targa della macchina da parcheggiare\n\t  */\n\tfunction prenotazione(uint _tsOwn, uint _dOwn, uint _idPosto, string _targa) public payable {\n\t\tbool _disp; \t\t\t\t\t\t\t\t/*!< disponibilità del posto*/\n\t\tuint _next; \t\t\t\t\t\t\t\t/*!< indice della prossima sosta*/\n\t\tuint _prev; \t\t\t\t\t\t\t\t/*!< indice della sosta precedente*/\n\n\t\trequire((_tsOwn > (now - 120)), \"Prenotazione: orario già passato\");\n\n\t\trequire((_tsOwn < maxTime), \"Prenotazione: orario troppo avanti nel futuro\");\n\t\trequire((_dOwn < maxDurata), \"Prenotazione: durata troppo lunga\");\n\t\trequire((_idPosto < nPosti), \"Prenotazione: posto inesistente\");\n\n\t    (_prev,_next,_disp) = checkDisp(_tsOwn, _dOwn, posti[_idPosto].idSosta);\n\t\trequire(_disp,\"Prenotazione: posto non disponibile\");  \t\t\t\t\t\t\t\t\t\t\t\t\t\t\t\t\t\t\t\t\t\t\n\n\t   \tuint _idSosta = uint(keccak256(abi.encodePacked(_tsOwn,msg.sender,_idPosto)));\t\t\t\t\t\t\t\t\t\t\t\t\t/*!< hash usato come indice per le soste*/\n\t    uint _prezzo =  ether1*(_dOwn/3600)*posti[_idPosto].prezzo;\t/*!< costo del posto, in wei*/\n\t    require(pago(_prezzo,_idSosta), \"Prenotazione: problemi con il pagamento\");\n\n    \tsoste[_idSosta] = Sosta(_tsOwn, _dOwn, _targa, _next, _idPosto);\n    \tsoste[_prev].nextSosta = _idSosta;\n\t}\n\n\t/**\n\t  * @notice  Permette di ricercare tutti i posti disponibili per un particolare orario.\n\t  * @param  _tsOwn timestamp dell'orario in cui si desidera il posto\n\t  * @param  _dOwn durata della sosta\n\t  *\t@return vettore di posti liberi\n\t  */\n\tfunction ricercaPosto(uint _tsOwn, uint _dOwn) public returns(bool []) {\n\t\tbool _disp; \t\t\t\t\t\t\t\t/*!< disponibilità del posto*/\n\t\tuint _next; \t\t\t\t\t\t\t\t/*!< indice della prossima sosta*/\n\t\tuint _prev; \t\t\t\t\t\t\t\t/*!< indice della sosta precedente*/\n\n\t\trequire((_tsOwn > (now - 120)), \"Ricerca Posto: orario già passato\");\n\n\t\trequire((_tsOwn < maxTime), \"Ricerca Posto: orario troppo avanti nel futuro\");\n\t\trequire((_dOwn < maxDurata), \"Ricerca Posto: durata troppo lunga\");\n\n\t\twhile(postiLiberi.length != 0){\n\t\t    delete postiLiberi[postiLiberi.length-1];\n\t\t    postiLiberi.length--;\n\t\t}\n\t\tuint maxIndex = nPosti+1;\n\n\t\tfor(uint i=1; i<maxIndex; i++){\n\t\t\t(_prev,_next,_disp) = checkDisp(_tsOwn, _dOwn, posti[i].idSosta); \n\t\t\tpostiLiberi.push(_disp);\n\t\t}\n\n\t\treturn postiLiberi;\n\t}\n\n\t/**\n\t  * @notice  Permette di estendere una sosta già acquistata.\n\t  * @param \t_idSosta indice della sosta già acquistata\n\t  * @param  _dOwn nuova durata durata della sosta\n\t  */\n    function estensione(uint _idSosta, uint _dOwn) public payable {\n\n    \t/* Le soste con ID da 0 a nPosti sono riservate*/\n\t  \trequire(_idSosta > nPosti, \"Estensione: ID della sosta non valido\");\n\n\t    uint _ora = soste[_idSosta].ora + soste[_idSosta].durata;\t\t\t\t\t\t/*!< l'estensione comincia del termine della sosta*/\n\t    require(_ora > (now - 120),\"Estensione: sosta già scaduta\");\n\n\t    uint _oraNext = soste[soste[_idSosta].nextSosta].ora; \t\t\t\t\t\t\t/*!< ts dell'orario di inizio della prossima sosta*/\n\t    require(((_ora + _dOwn)<_oraNext), \"Estensione: posto non disponibile\");\n\n\t    /* Se la sosta è valida, non è scaduta e non sfora in una sosta prenotata, allora posso estenderla*/\n\t    soste[_idSosta].durata += _dOwn;\n\n\t   \tuint _prezzo =  ether1*(_dOwn/3600)*posti[soste[_idSosta].idPosto].prezzo;  \t/*!< costo del posto, in wei*/\n\t    require(pago(_prezzo, _idSosta), \"Estensione: problemi con il pagamento\");\n\t}\n\n/*\n  function stampaLista(uint _idPosto) public returns (uint) {//, uint[]) {\n   \t\tuint _i = posti[_idPosto].idSosta;\n\t    uint _k = 0;\n\n\t    while(printedList.length != 0){\n\t\t    delete printedList[printedList.length-1];\n\t\t    printedList.length--;\n\t\t\t}\n\n\t    while(soste[_i].ora != maxTime){\n\t \t  printedList.push(_i);\n\t      _i = soste[_i].nextSosta;\n\t      _k++;\n   \t\t}\n\n\t    _k++;\n\t\tprintedList.push(_i);\n\n\t\treturn _k;\n\t\t//return (_k, printedList);\n\t}\n*/\n}\n\n",
  "sourcePath": "/Users/hayato/Documents/EthereumParking/contracts/Parking.sol",
  "compiler": {
    "name": "solc",
    "version": "0.4.24+commit.e67f0147.Emscripten.clang"
  },
  "schemaVersion": "2.0.1",
  "updatedAt": "2018-11-11T12:30:39.570Z"
}